2024001001Oraz        Annamuradow A0101020000000000ABCAABCDBBCDABCDABCDABCDABCDABCDABCA#BCDABCDABCDABCDABCDABCDABCDABCAABCDABC#ABCDABCDABCDABCDABCDABCDABCDABCDA#CDABCDABCDABCDABCDABDDABCDABCDABCDABCDABCDABCDABCDA#CDABCDABCDABDDABCDABCDABCDABCDABCDABCD
2024001002Aysel       Myradowa    A0102000000000000ABCAA#CDABDDABCD#CCDABCDBBC#ABCAABCDABDDABCDACCDA#CDBBCDABCA#BCDABDDABC#ACCDABCDBB#DABCAABCDA#DDABCDACCD#BCDBBCDABCAABCDABDDAB#DACCDABCDB#CDABCAABCD#BDDABCDACC#ABCDBBCDAB#AABCDABDDA#CDACCDABCDBBCDABCD
2024001003Begench     Durdyyew    B0201010000000000CDABCAABCDABCDACCDAB#DBBCDABCD#BCDABCDAB#DABDDABCDABCDABCDABDDABCDACCD#BCDABCDAB#DABCDABCAABCDABCDABDDABCDABCD#BDDABCDAB#DABCDABCDABCDACCDAB#DABCDABCDBBCDABCDBB#DABCDABCDABCDABCAAB#DABCDABCAABCAABCDAB
2024001004Maral       Orazowa     B0201000000000000CA#BCAABCAABCAAB#AABCAA#CAABCA#BCAABCAABCAAB#AABCAA#CAABCA#BCAABCAABCAAB#AABCAA#CAABCA#BCAABCAABCAAB#AABCAA#CAABCA#BCAABCAABCAAB#AABCAA#CAABCA#BCAABCAABCAAB#AABCAA#CAABCA#BCAABCAABCAAB#AABCAA#CDABCD#B
2024001005Serdar      Charyyew    A0101020000000000B#CAA#DDACCDB#CAA#DDACCDB#CAA#DDACCDB#CAA#DDACCDB#CAA#DDACCDB#CAA#DDACCDB#CAA#DDACCDB#CAA#DDACCDB#CAA#DDACCDB#CAA#DDACCDB#CAA#DDACCDB#CAA#DDACCDB#CAA#DDACCDB#CAA#DDACCDB#CAA#DDACCDB#CAA#DDACCDB#CDA#CD
